:020000040001F9
:10400000B8330020FD4101000F42010011420100C0
:1040100000000000000000000000000000000000A0
:10402000000000000000000000000000134201003A
:1040300000000000000000001542010017420100CE
:1040400019420100194201002548010019420100EE
:10405000194201000000000019420100194201004C
:1040600019420100194201001942010019420100E0
:1040700019420100194201001942010019420100D0
:10408000194201009F60010019420100194201001C
:10409000C1600100194201004F570100194201009F
:1040A0001942010019420100000000000000000058
:1040B0000000000000000000000000000000000000
:1040C00000F002F800F03EF80CA030C808382418C0
:1040D0002D18A246671EAB4654465D46AC4201D140
:1040E00000F030F87E460F3E0FCCB6460126334234
:1040F00000D0FB1AA246AB463343184724240000E5
:1041000044240000103A02D378C878C1FAD8520784
:1041100001D330C830C101D504680C60704700007D
:104120000023002400250026103A01D378C1FBD8D3
:10413000520700D330C100D50B6070471FB51FBDBB
:1041400010B510BD02F0B0F91146FFF7F7FF00F00F
:1041500079FB02F0C8F903B4FFF7F2FF03BC02F0E9
:10416000CDF90000401E00BF00BF00BF00BF00BF70
:1041700000BF00BF00BF00BF00BF00BF00BFF1D144
:1041800070470000401E00BF00BF00BF00BF00BF5F
:1041900000BF00BF00BF00BF00BF00BF00BFF1D124
:1041A00070470000401E00BF00BF00BF00BF00BF3F
:1041B00000BF00BF00BF00BF00BF00BF00BFF1D104
:1041C0007047000070B505460C46164602E00FCC5D
:1041D0000FC5103E102EFAD2082E02D303CC03C511
:1041E000083E042E07D301CC01C5361F03E0217819
:1041F0002970641C6D1C761EF9D270BD0A480268D5
:1042000003210A4302600948804709480047FEE746
:10421000FEE7FEE7FEE7FEE7FEE700000548064989
:10422000064A074B7047000024050040E9420100A0
:10423000C1400100B8230020B8330020B82B002073
:10424000B82B002032483349086070473248008C50
:10425000C0B2012812D13048808C0007000F00281E
:104260000CD12D48806AF0210840402806D12A4808
:10427000C06A0840002801D1012070470020FCE7F7
:104280002548008CC0B201282CD12348808C00071F
:10429000000F002826D12048806AF021084000281D
:1042A00006D11D48C06A0840002801D1012070478E
:1042B0001948806AF0210840102806D11648C06AC3
:1042C0000840002801D10120F1E71348806AF0215D
:1042D0000840302806D11048C06A0840002801D1A3
:1042E0000120E4E70020E2E710B5FFF7C9FF00284E
:1042F00005D00A480A494860C8130A498861FFF78F
:10430000A5FF002802D001200749886010BD0000E9
:104310000024F40000200020C00F00F0DFFF07C0E1
:1043200000050040006C00400006004000BFBFF3E5
:104330004F8FFA48FA49C860BFF34F8F00BF00BFE4
:10434000FEE703460C4622461946F648FFF7EEFF05
:1043500010B5012000F046FB1E2000F043FB10BD0D
:1043600038B500BF0020F04B05220221009001F07B
:10437000ABFE044600BF2346002B05D000BFEBA2D6
:1043800091211846FFF7D2FF00BF00BF38BD3EB5F0
:1043900000BF6846007801090901491C0091684680
:1043A0000078F02188431030009000BF0B22E3A179
:1043B00068467CDF044600BF2346002B05D000BFC3
:1043C000DAA2A5211846FFF7B1FF00BF0020019037
:1043D00002901021684681803C21C180002101812A
:1043E000FF219131418101A87ADF044600BF2346B5
:1043F000002B05D000BFCDA2AE211846FFF796FFD7
:1044000000BF042077DF044600BF2346002B05D001
:1044100000BFC6A2B1211846FFF788FF00BF3EBD0E
:1044200010B5A2B00521039104210291C64800688D
:1044300001903C2113A802F032F8022013900121D0
:1044400010A84174818203A9169102A817903C21FB
:1044500004A802F024F801216846818501A90C9185
:1044600004A913A800F001FF044600BF2346002B57
:1044700005D000BFADA2D5211846FFF757FF00BFFA
:1044800022B010BDF8B507460D461646002403E0DD
:10449000285D01F0CCF9641CB442F9DBF8BD38B5F5
:1044A00000200090A94800906946A94800F0BBFB95
:1044B000044600BF2346002B05D000BF9BA2F62177
:1044C0001846FFF733FF00BF38BD1E20A149088002
:1044D0000846807840084000401C88700846807874
:1044E000022188439B498870084680781C218843B4
:1044F0000C30984988700846807820218843954977
:1045000088700720C87010200871704770B5054684
:104510002868002810D13B218F48008876DF0446A8
:1045200000BF2346002B06D000BF80A2FF211B3115
:104530001846FFF7FBFE00BF70BD034600BF7BA21D
:10454000FF2126311846FFF7F1FE10B588B01C2177
:1045500001A801F0A4FF0020019005204004029072
:104560008010039003216846017400214182017587
:104570007A4806907A48079001A800F012FF044696
:1045800000BF2346002B06D000BF68A2FF213D31AB
:104590001846FFF7CBFE00BF08B010BD10B586B0BF
:1045A000142101A801F07BFF002168460171002061
:1045B00002906846017340218182B421C18201A822
:1045C00073DF044600BF2346002B06D000BF57A26E
:1045D000FF2152311846FFF7A9FE00BF012000F06D
:1045E0000AFA06B010BD70B50546288814284ED0CA
:1045F00006DC10280BD0112813D013287DD11AE027
:1046000017283ED019286FD0522876D126E01E20D8
:1046100000F0F1F9012000F0F3F9A8884E49088074
:104620006CE01E2000F0ECF90020C0434A490880ED
:10463000FFF7B4FF62E0474A0021474800887FDF68
:10464000044600BF2346002B06D000BF37A2FF213F
:1046500077311846FFF76AFE00BF4FE0002211468F
:104660003D480088A9DF044600BF2346002B06D042
:1046700000BF2EA2FF217C311846FFF757FE00BF76
:104680003CE03222A91D374801F0AAFE36E0354E43
:10469000B61D3188E889814211D1002231462E4869
:1046A000008881DF044600BF2346002B06D000BFF0
:1046B0001EA2FF2188311846FFF738FE11E00022C4
:1046C00011462548008881DF044600BF2346002BA1
:1046D00006D000BF15A2FF218E311846FFF726FE37
:1046E00000BF0BE009E0FFE7A879002804D1012012
:1046F00000F086F9FFF752FF00E000BF00BF70BD79
:1047000010B50446204600F020FF2146104800F076
:1047100067FA2046FFF767FF10BD00000400FA05A6
:1047200000ED00E0EFBEADDE9C2000202E2E5C6D83
:1047300061696E5F666C792E6300000065756C655B
:10474000725F64726F6E65000C6501008544010044
:1047500068200020042000200A2000200D450100D0
:104760003B450100B422002070B500BF0023502259
:10477000A6490E2000F0A3FF054600BF2B46002BE4
:1047800006D000BFA24AFF21C1311846FFF7CEFD77
:1047900000BF00BF9F4800F0C8FF044600BF23468B
:1047A000002B06D000BF9A4AFF21C5311846FFF7FB
:1047B000BDFD00BF70BD30B5102003210A461304B3
:1047C0008C0023430524240707252D026419850046
:1047D000635100BF30BD10B53DDF044600BF234626
:1047E000002B06D000BF8A4AFF21D8311846FFF7B8
:1047F0009DFD00BF10BD08B500201C230A221D210D
:104800000090082001F02EF804208349486003211D
:10481000022000F0B0F80220012181407F4A11609F
:1048200000BF08BD10B500F0D7FF7D497D4A127862
:1048300088547C480078401C7A4908700A207A49DC
:10484000087010BD0024FFF783FDFFF789FDFFF717
:10485000B2FFFFF7D0FFFFF787FFFFF798FDFFF7E5
:104860001EFEFFF7DDFDFFF770FEFFF72EFEFFF7E0
:1048700095FE00BF6B480078002879D002E06420E4
:10488000FFF770FC684801780078401E664A107097
:104890000029F4D163480078142844DD14226049CB
:1048A000624800F0FAF90546082D0BD000BF2B46F0
:1048B000002B06D000BF564A232109011846FFF7F6
:1048C00035FD00BF142407E05548015D204614382B
:1048D000534A1154601CC4B2524800788442F3DB3E
:1048E00050480078143882B24D49504800F0D5F94C
:1048F0000546082D0BD000BF2B46002B06D000BF6D
:10490000434A4721C9001846FFF710FD00BF0024A5
:1049100004E0002042490855601CC4B241480078B8
:104920008442F6DB1EE03F4802783D493F4800F0F4
:10493000B4F90546082D0AD000BF2B46002B05D040
:1049400000BF334A3A491846FFF7F0FC00BF002485
:1049500004E0002032490855601CC4B23148007898
:104960008442F6DB0A203049087000202D49087087
:10497000FFF731FF7EE710B5002819DA2D4A03074B
:104980001B0F083B9B089B00D2588307DC0EFF23BC
:10499000A3409A438B071B0E8407E40EA3401A43DF
:1049A000244B0407240F083CA408A4001A5118E063
:1049B0001A4A03231B02D21883089B00D25883078C
:1049C000DC0EFF23A3409A438B071B0E8407E40EE3
:1049D000A3401A43114B032424021B198408A4008A
:1049E0001A5110BD01210522120707231B02D218FC
:1049F0008300D1507047012181400F4A9160704778
:104A0000012181400C4AD16070470000E82200205B
:104A10002C470100014701000023004000E100E0B5
:104A20007C2000200C2000200D2000206820002089
:104A3000420200001CED00E0000500508A888281DF
:104A400070470022D2438281704770B504460E46FB
:104A5000B51D29882089814213D1288B022810D1C5
:104A600000BF00BFA97EEA7E120211430846C107BB
:104A7000C90F002902D00120A0730FE00020A0730D
:104A80000CE02888A188884208D12069002805D038
:104A90002A8B29461A3120462369984770BD30B5C4
:104AA0008FB004460D460020009000BF6846007895
:104AB00001090901491C684601700078F02188430A
:104AC00010306946087000BF00BF68464078010991
:104AD0000901491C684641704078F0218843103034
:104AE0006946487000BF6846807806218843811C6B
:104AF000684681701C2108A801F0D1FC08A8007844
:104B000002218843811C08A8017000780421884391
:104B1000011D08A80170007810218843103008A9F1
:104B20000870002009900B900C9068460D900020B2
:104B30000E9000BF0121684681721E21C943018188
:104B400000BF0020019000BF6846007901090901FB
:104B5000491C684601710079F0218843103069468C
:104B6000087100BF00BF6846407901090901491C6E
:104B7000684641714079F021884310306946487198
:104B800000BF6846807906218843811C6846817190
:104B90008079082188430146684681718079102117
:104BA0008843014668468171807941084900491C63
:104BB00068468171142103A801F071FC02A80390DA
:104BC00001A804900121684681820021C182172139
:104BD00001836088231D03AA08A9A2DF0FB030BD9E
:104BE00070B505460C46002D01D0002C00D170BDDB
:104BF0002088102804D0112807D050280FD109E0B0
:104C000021462846FFF71AFF0AE021462846FFF70B
:104C100018FF05E021462846FFF717FF00E000BF18
:104C200000BF00BFE3E770B586B004460E46304BC8
:104C30000FCB01AD0FC5002C01D0002E02D10E20EC
:104C400006B070BD0020C043A08130682061012003
:104C5000A073214601A862DF0546002D01D0284639
:104C6000EEE700BF0121684681751F21C94381829B
:104C700000BFA21C05A90120A0DF0546002D01D020
:104C80002846DDE731462046FFF709FF0546002D9F
:104C900001D02846D4E70020D2E737B584B00446D7
:104CA0000D46002C02D10E2007B030BDA08911495D
:104CB000884202D0A07B002801D10820F4E7684692
:104CC000008B172801DD0720EEE7002000900190FF
:104CD00002900390A18868460180039506A802907F
:104CE000012168468170A0896946A6DFDCE70000E3
:104CF00010650100FFFF0000F7B584B004460F46C1
:104D000006980678B01C1F2803DC2079801C1F2819
:104D100002DD0C2007B0F0BD1F20801B801E85B275
:104D20000295B11C781802A97DDF03900398002832
:104D300001D00398EEE72068022808D16846008970
:104D4000A84204DC09200190684605890BE0082090
:104D500001902079002804D02079A84201DC25792F
:104D600001E068460589681CC2B23046711CCEB2AB
:104D70003A543046721CD6B20199395406980178DB
:104D8000A81C0818C1B2069801700020C2E7F8B547
:104D900005460C462078001D1F2801DD0C20F8BDBB
:104DA000684679DF0646002E01D03046F7E703213A
:104DB0002278501C2070A95419212278501C207090
:104DC000A954207841196846008800F08BFA2178B0
:104DD000401820700020E2E7F8B505460F46164659
:104DE0001C466868002801D10720F8BD2078801C87
:104DF000298840181F2801DD0C20F6E72878401C80
:104E0000C1B22278501C2070B1542178481C207007
:104E100077542A8823789819696801F0E1FA207894
:104E20002978401820700020DFE730B5034610785D
:104E3000C01C1F2801DD0C2030BD02241578681C21
:104E400010704C550A241578681C10704C55157854
:104E5000681C10704B550020EEE7FFB587B0064682
:104E60001D46109C0020069020780590002747E002
:104E7000B900706841180A886846028149884181F2
:104E8000002203A902A864DF04900498002802D03D
:104E900004980BB0F0BD6846017B099881422ED181
:104EA0000698002801D0002000E002200190207820
:104EB0006946097B4118019808181F2801DD0C205C
:104EC000E7E70698002809D12078401C2070227856
:104ED000511C08982170A85401200690207842198E
:104EE00003A902A864DF04900498002801D0049864
:104EF000CFE720786946097B4018207000BF7F1CEF
:104F00003088B842B4DC0698002806D0217805988D
:104F1000401C081AC1B2059829540020B9E7FFB512
:104F200081B0074615460A9E009602223846049B29
:104F30000299FFF792FF0446002C02D0204605B0EC
:104F4000F0BD0096102229463846049BFFF785FFE6
:104F50000446002C01D02046F1E70020EFE701468F
:104F60000888062808DB08881922D201904205DD4E
:104F70000888E14A904201D00720704748880628F7
:104F800008DB48881922D201904205DD4888DA4AB8
:104F9000904201D00720F0E70888D74A904208D015
:104FA0004888904205D008884A88904201DD072051
:104FB000E3E70020E1E7F8B506460D461446207801
:104FC000801D1F2801D90C20F8BD3046FFF7C7FF10
:104FD0000746002F01D03846F6E705212278501CFD
:104FE0002070A95412212278501C2070A9542278D4
:104FF0005119308800F076F9217840182070227815
:105000005119708800F06EF9217840182070002046
:10501000DAE7F8B505460E4614462879801CC7B273
:105020002078801CC0191F2801DD0C20F8BD781CD9
:10503000C1B22278501C2070B154FF212278501C3C
:105040002070B15422789119288800F04BF921780A
:1050500040182070A88800280EDDA868002801D11B
:105060000720E3E7AA8823789819A96801F0B8F91E
:1050700020782979401820700020D7E7FEB5074630
:105080000E461446786B002801D10720FEBD002093
:10509000019032E0796B0C22019850430D18287969
:1050A000801CC0B200900098401CC1B22278501CF5
:1050B0002070B15416212278501C2070B1542278EF
:1050C0009119288800F00EF9217840182070A888DE
:1050D00000280EDDA868002801D10720D6E7AA889D
:1050E00023789819A96801F07BF92078297940186C
:1050F00020700198401CC0B201903820C15D019819
:105100008142C7DC0020C1E7F8B504460F461646C9
:105110000025002030702068002809D0324639462A
:105120002046FFF7E9FD0546002D01D02846F8BDD1
:105130006079002808D031463846FFF728FE05463A
:10514000002D01D02846F2E7208900280BDD3346E8
:105150003A46012120460830FFF73EFE0546002D65
:1051600001D02846E3E7206900280BD00020216900
:10517000085632463946FFF758FE0546002D01D045
:105180002846D4E7A08A00280CDD3B4606220221EF
:10519000204614300096FFF7C2FE0546002D01D0D0
:1051A0002846C4E7A08B00280CDD3B4607220321DC
:1051B00020461C300096FFF7B2FE0546002D01D0B8
:1051C0002846B4E7A08C00280CDD3B4615221421AC
:1051D000204624300096FFF7A2FE0546002D01D0A0
:1051E0002846A4E7E06A002809D032463946E06A3A
:1051F000FFF7E1FE0546002D01D0284697E7206B1A
:10520000002809D032463946206BFFF702FF0546D9
:10521000002D01D028468AE73820005D002809DDEE
:10522000324639462046FFF729FF0546002D01D0BA
:1052300028467CE728467AE701460889002808D0F6
:10524000C868002805D0C8680078042210400028EB
:1052500001D1072070470020FCE70146088900289B
:1052600001DD072070470020FCE7F3B593B00D4641
:105270000021129111911398002814D01398FFF770
:10528000DBFF0446002C02D0204615B0F0BD12AA68
:1052900009A91398FFF738FF0446002C01D02046D7
:1052A000F3E709AE00E00026002D13D02846FFF7F3
:1052B000D4FF0446002C01D02046E6E711AA01A93C
:1052C0002846FFF721FF0446002C01D02046DCE7EA
:1052D00001AF00E0002710A803793A46017A304672
:1052E00072DFD2E702460A70FF200002104000126F
:1052F0004870022070470000FFFF00000146488808
:10530000B74A1288904206DB4888B54A52889042D4
:1053100001DC012070470020FCE738B50546B148A4
:105320000088B14988423BD0B0480078401CAF4962
:105330000870AF48007B097888420FDBA849A9486C
:10534000008875DF0446002C07D0A9488069002832
:1053500003D0A74881692046884721E00020A3495F
:105360000870A348007C00280FD03B219D4800888E
:1053700076DF0446002C07D09D488069002803D0C2
:105380009B4881692046884700BF994840690028AA
:1053900006D000200090964841696846884700BFC3
:1053A00038BD70B505461C2229469148FEF70AFF14
:1053B000002090490870286800280BD008228848EF
:1053C000296801F00DF886487ADF0446002C08D0E1
:1053D000204670BD82487BDF0446002C01D0204669
:1053E000F7E70020C0437F49088000207F4908700C
:1053F000814A0021814800F0E2FEEAE710B57F48CB
:10540000006800F054FF10BD38B57D48FFF776FF07
:10541000002829D17748007800280AD074484069CC
:10542000002820D0002000907148416968468847D4
:1054300019E06E480078002802D16D48456801E007
:105440006B488568002229466C48006800F0FEFE23
:105450000446002C07D066488069002803D06448C1
:105460008169204688470AE061484069002806D0E3
:10547000012000905E4841696846884700BF0020CF
:105480005C49087038BD10B50446A08855490880AD
:10549000082221460E315A4800F0A2FF002053494D
:1054A00008705348C089002801D1FFF7ADFF10BD37
:1054B00070B505460020C0434A49088000204B498A
:1054C00008704E48006800F0F2FE0446002C07D039
:1054D00047488069002803D04548816920468847AD
:1054E00070BD70B50546AC1D20884149C989884208
:1054F00020D1208B02281DD100BF00BFA17EE27EFB
:10550000120211430846C107C90F002902D0FFF754
:105510007BFF0FE03948006800F0C9FE0646002E08
:1055200007D033488069002803D03148816930466C
:10553000884700BF70BD10B504460822A11D304841
:1055400000F04EFFFFF760FF10BD10B50446208845
:10555000102806D0112808D012280ED0502810D1BB
:1055600007E02046FFF78FFF0CE02046FFF7A0FF83
:1055700008E02046FFF7B5FF04E02046FFF7DBFF19
:1055800000E000BF00BF10BD38B504460822214628
:10559000134800F025FF12487ADF0546002D1CD184
:1055A0001748FFF7ABFE00280BD101201149087006
:1055B0000B490C48008875DF054601200B4908702F
:1055C0000BE00B484069002806D0012000900848F5
:1055D00041696846884700BF0025284638BD00005D
:1055E000102000201A200020FFFF000018200020BB
:1055F00038230020282000201B53010024200020F5
:105600001C20002070B506460C461546294620464B
:10561000FEF797FE70BDF8B55A480078002800D113
:10562000F8BD59480068002801D1012000E00020A1
:10563000054656480068002801D1012000E00020FE
:10564000064600BF002D14D168464EDF0446052CE7
:1056500001D101250CE0002C06D000BF4CA269212D
:105660002046FEF763FE03E0474900980968884733
:1056700000BF002E1AD15448008800906946534854
:10568000006860DF0446052C01D101260DE0002CE6
:1056900006D000BF3EA280212046FEF747FE04E070
:1056A0004A48006839490968884700BF002D02D080
:1056B000002E00D000E0C5E700BF00BFB0E7FFB597
:1056C00081B00C4616461F46002C02D1072005B0BB
:1056D000F0BD20468107890F002901D1012100E09A
:1056E0000021002901D10720F1E73848046036483D
:1056F0000680374807603749019810DF0546002DBE
:1057000001D02846E3E701201E490870162023DF58
:10571000DDE710B511DF0446002C01D0012000E0C8
:10572000002018490870204610BD0146002901D10B
:105730000E207047154801600020FAE70146002955
:1057400001D10E207047104801600020FAE770B5C3
:105750001F480068002811D01D4800688047044693
:1057600000BF2546002D07D000BF09A2FF2133311D
:105770002846FEF7DBFD00BF00BF01E0FFF74BFF4F
:1057800070BD0000362000203C2000203820002082
:105790002E2E5C2E2E5C2E2E5C2E2E5C2E2E5C2E43
:1057A0002E5C536F757263655C73645F636F6D6DC0
:1057B0006F6E5C736F66746465766963655F68615C
:1057C0006E646C65722E630034200020302000204F
:1057D0002C2000200556010000BF424880680128A7
:1057E000FBD100203F4988603F488069C0B27047C4
:1057F00070B504460D4601260AE02046641E0028C6
:1058000004DB7D20C000FEF7BDFC01E0002603E0C4
:10581000344880680128F0D100BF002C05DB00204F
:1058200030498860304880692870304670BD2E4904
:10583000C86100BF2B49C9690129FBD10021294A50
:10584000D161704730B50346002528466D1C1C5CAD
:1058500005E02046FFF7EBFF28466D1C1C5C002C82
:10586000F7D130BDF8B507460C4615461E46204612
:1058700000F025F80021304600F02AF81A48C460EC
:105880004661069800280DD0384600F018F800212F
:10589000284600F01DF81448056187600120124970
:1058A0004031C86211481049486204200860012054
:1058B0000F498860086000200A498860F8BD01210E
:1058C0000522120707231B02D2188300D15070470C
:1058D00010B58A0005231B07072424021B19840026
:1058E0001A5110BD002100400025004000E0D70102
:1058F0000020004010B5002819DAFA4A03071B0FF0
:10590000083B9B089B00D2588307DC0EFF23A34073
:105910009A438B071B0E8407E40EA3401A43F14BF6
:105920000407240F083CA408A4001A5118E0EE4A0A
:1059300003231B02D21883089B00D2588307DC0E76
:10594000FF23A3409A438B071B0E8407E40EA3405A
:105950001A43E54B032424021B198408A4001A519E
:1059600010BD10B50446E148846003211120FFF703
:10597000C1FF10BD10B501200004DD494860DC49BD
:1059800040394860112000F0DDFC112000F0CCFC13
:105990000120D84908602F20FEF704FC10BD10B587
:1059A000112001218140D04A8032116000BF0120C6
:1059B0000004CF498860CE49403988600120CD4934
:1059C00048602F20FEF7EEFB10BDF0B50246282000
:1059D0005043C94B1B68C118C8480068401C0028C8
:1059E00002D1C648026059E0C4488B680068282488
:1059F0006043C14C246800198068834217D8BF48AF
:105A0000006828235843BC4B1B68C01880688B680B
:105A1000C31ABA48006828246043B74C24680019A8
:105A20008360B64800684862B448026036E08B681C
:105A3000B24D2C6828680DE028254543AE4E3668E7
:105A4000AD19AD685B1B044628254543AA4E366850
:105A5000AD19686A451C002D07D028254543A64E80
:105A60003668AD19AD689D42E6D3451C002D0CD0BB
:105A700028254543A04E3668AD19AD68EE1A282595
:105A800045439D4F3F68ED19AE608B604862282505
:105A90006543994E3668AD196A6200BFF0BD70B5B6
:105AA0000246964C2168084609E0904200D109E080
:105AB000014628244443904D2D686419606A441CB3
:105AC000002CF2D100BF441C002C00D170BD8142DB
:105AD00009D18A4C246828256C43874D2D686419A8
:105AE000646A864D2C6028244443834D2D686419D4
:105AF000A36828244443804D2D686419656A2824CE
:105B00004C437D4E3668A419656228244C437A4D77
:105B10002D686419606A441C002C0CD0282444436E
:105B2000754D2D686419A468E51828244443724E05
:105B30003668A419A56000BFC8E710B5112000F0B1
:105B4000FAFB10BD10B5142000F0F5FB10BD70B5C8
:105B500004466B480068002813D0694A216AE0694E
:105B600012689047054600BF2E46002E07D000BFA2
:105B700064A2FF2155313046FEF7D8FB00BF00BFBD
:105B800002E0E169206A884770BDF8B55B480068AB
:105B9000401C00283AD0002700F006FC0446654867
:105BA0000168204600F003FC06465448056811E0F1
:105BB00028206843504909684418A068B04200D9B9
:105BC0000BE0A068361AA068C719656A2046FFF77F
:105BD000BEFF00BF681C0028EAD100BF564800780D
:105BE00056490978884209D154480078401CC0B20F
:105BF00052490870022801D1002008704F480078EF
:105C000080004F490F50FFF79DFF00BFF8BD0146D0
:105C100049480078494A127890421DD04648007899
:105C2000401C454A107010460078022801D100201F
:105C30001070414800788000414A105808603D4A81
:105C40000868126880183B4A10601046006800021D
:105C5000000A1060012070470020086000BFFAE7CA
:105C6000FEB526480068019036480078009074E040
:105C70000098C000344909684418257869E0182064
:105C8000684361680F18681CC5B2A078A84200D1AB
:105C900000253868022802D0032857D10EE02821B9
:105CA00078684843144909684618307E002804D0B3
:105CB0007868FFF7F4FE0020307648E00CE00F49EA
:105CC0000968282251430C4A12688818002101767D
:105CD0000A4A416A116000BF08480068401C002859
:105CE000EDD134E01CED00E000E100E000150140E2
:105CF00040130140001001404420002050200020AB
:105D0000642000202E2E5C2E2E5C2E2E5C2E2E5C0F
:105D10002E2E5C2E2E5C536F757263655C61707005
:105D20005F636F6D6D6F6E5C6170705F74696D65E0
:105D3000722E63005420002060200020612000208B
:105D400058200020482000204C20002000BF00BF29
:105D500000BF6078A84292D100BF0098411EC9B22E
:105D60000091002884D1FE4801680198814201D049
:105D70000120FEBD0020FCE7F0B50346002426E02C
:105D8000F74E366828277E43F64F3F68F01986683D
:105D90009E4203D98668F61A86601DE086689B1BC2
:105DA00086683419002686600676ED4E3568EC4F1D
:105DB000466A3E604669002E08D00E193602360A41
:105DC000C6604669066116684662156000BFE44811
:105DD0000068401C0028D3D100BFF0BDFEB50746C7
:105DE000DF4800680290E048007801906BE001987D
:105DF000C000DE49096845185DE0781C002807D01E
:105E00003E4628207043D74909684418676A23E052
:105E10002978182359436A6850182978491C297031
:105E20002978AA78914201D1002129704668282159
:105E30007143CC4A12688C180168012902D1217E75
:105E4000002900D037E08168E160C1682161016903
:105E500061614169216200BFC549E0680968401A73
:105E60000002000AC349884208D2C149E0680968B3
:105E700000F09DFA21694018A06011E0BC48E1687B
:105E8000006800F094FA009021690098814204D9DA
:105E900021690098081AA06001E00020A06000BFFE
:105EA0000020E060206101202076801E6062304684
:105EB000FFF78BFD00BF781C00289ED128786978F9
:105EC00088429AD100BF0198411EC9B201910028B1
:105ED0008DD1A34801680298814201D00120FEBD06
:105EE0000020FCE7FEB505469D480068401C0028E0
:105EF00035D09B480068282148439A4909684018D2
:105F0000866800F051FA0290994804682146029888
:105F100000F04DFAC01C0190681C002801D1FFF769
:105F200029FD0198B04201D2304600E001980419E1
:105F30002402240A20469049086000BF00F034FA89
:105F400000900299009800F032FAC71C204602998E
:105F500000F02DFA874201D9FFF7EFFD01E0FFF7CE
:105F60001EFDFEBDFEB50020C043019080480468C0
:105F70007B4807686846FFF74AFE0546FFF770FE54
:105F80000646002D05D001AA21460098FFF7F4FE31
:105F900001260198FFF722FF002800D00126002EDD
:105FA00002D03846FFF79EFFFEBD4170704770B5C6
:105FB00002460B465078411C9078884200D100215F
:105FC0001078884201D1002070BD196050781826E1
:105FD000704355682C182046F6E7FFB581B005469A
:105FE0000E461746E900614A126888186946FFF7AD
:105FF000DEFF0446002C02D1042005B0F0BD0120D4
:106000002060666000F0D0F9A060E760049820612D
:106010000A986061E900554A126888180099FFF7EC
:10602000C4FFFFF78FFD0020E7E7F8B504460E46F2
:10603000E1004E4A126888186946FFF7B8FF054626
:10604000002D01D10420F8BD022028606E60E1001F
:10605000464A126888180099FFF7A7FFFFF772FDFC
:106060000020F0E738B50446E100404A126888187D
:106070006946FFF79CFF0546002D01D1042038BD7D
:1060800003202860001F6860E100384A1268881801
:106090000099FFF78AFFFFF755FD0020EFE710B5E5
:1060A0000020364908600021344841608160C160A9
:1060B00000203249403908604860FFF766FD10BD96
:1060C00010B5FFF74FFF10BDFFB581B00E46174664
:1060D0001C4620468107890F002901D1012100E0DB
:1060E0000021002902D1072005B0F0BD002C01D10C
:1060F0000720F9E7FFF753FC21490A980860214877
:1061000006701848046000250CE000212820684330
:10611000144A1268115028206843124A12688018E5
:1061200001766D1CB542F0DB282070430419032072
:106130000D4908700D480460183400250CE0E90092
:106140000A4A126888180021017041708770446003
:10615000182179430C196D1C032DF0DB002013E08E
:106160005020002044200020482000204C20002007
:1061700054200020FFFF7F004015014040110140E6
:106180006420002040200020C0438B49086000208C
:106190008A4908708A490870142000F0D3F8032156
:1061A0001420FFF7A7FB142000F0BEF80198FFF7BA
:1061B000D8FB00F0F9F883490860002094E770B537
:1061C00003460C4680480068002801D1082070BDB5
:1061D000002A01D10720FAE7002B01D10720F6E7BA
:1061E00000211CE028204843774D2D6828580028BE
:1061F00014D1012528204843734E36683550282095
:106200004843714D2D6840194460282048436E4D25
:106210002D684019C26119600020D8E7491C6B48FD
:1062200000788142DEDB0420D1E710B500F092F85F
:10623000012802D0032804D101E0002403E0012456
:1062400001E0022400BF00BF204610BDFEB5044699
:106250000D4616465C480068002801D10820FEBDA6
:106260005A480078844201D2052D01D20720F6E772
:1062700028206043544909680858012801D00820A3
:10628000EDE728206043504909684018406801281C
:1062900001D1284600E000200746FFF7C6FF3B4635
:1062A0002A46214600960190FFF797FED7E770B582
:1062B000044645480068002801D1082070BD4348C5
:1062C0000078844201D30720F8E7282060433E4944
:1062D00009680858012801D00820EFE7FFF7A5FF5B
:1062E00005462146FFF7A1FEE8E710B536480068ED
:1062F000002801D1082010BDFFF797FF0446FFF7E3
:10630000B1FEF8E710B5044600F04EF8206000201A
:1063100010BD70B505460E4614463146284600F0BD
:1063200046F82060002070BDC206D20E01219140C7
:10633000274A11607047C206D20E01219140254ABA
:1063400011607047C206D20E01219140214A80326D
:106350001160704710B520484068C105C90D00297B
:1063600020D00A46103A104600280DDA1A4B1C338A
:106370000407240F083CA408A4001B598407E40E5A
:10638000E3401B069B0F0BE0114B032424021B1957
:106390008408A4001B598407E40EE3401B069B0FEE
:1063A000D8B210BD0420FCE70C4840687047024694
:1063B000501A0002000A7047502000206020002080
:1063C0006120002054200020442000204020002094
:1063D00000E100E000E200E000ED00E00015014017
:1063E000F8B5042A2CD3830712D00B78491C03700C
:1063F000401C521E83070BD00B78491C0370401CB5
:10640000521E830704D00B78491C0370401C521E97
:106410008B079B0F05D0C91ADF002023DE1B08C99C
:106420000AE0FDF7CFFEF8BD1D4608C9FD401C4639
:10643000B4402C4310C0121F042AF5D2F308C91A25
:10644000521EF0D40B78491C0370401C521EEAD433
:106450000B78491C0370401C012AE4D409780170B0
:10646000F8BD01E004C0091F0429FBD28B0701D548
:106470000280801CC90700D00270704700290BD031
:10648000C30702D00270401C491E022904D38307AF
:1064900002D50280801C891EE3E70022EEE700227D
:1064A000DFE7704770477047754600F023F8AE4647
:1064B000050069465346C008C000854618B020B59F
:1064C000FDF7ACFE60BC00274908B6460026C0C5F3
:1064D000C0C5C0C5C0C5C0C5C0C5C0C5C0C5403D9C
:1064E00049008D4670470446C046C0462046FDF729
:1064F00032FE000000487047542300200149182054
:10650000ABBEFEE72600020070470000E0FF01007E
:106510009ECADC240EE5A9E093F3A3B50000406E0B
:1065200040650100002000206800000004410100D7
:10653000A8650100682000205013000020410100E0
:106540000024F400000000000000FFFF000A00002B
:10655000000000000000000000000000000000003B
:10656000000000000000000000000000000000002B
:10657000000000000000000000000000000000001B
:10658000000000000000000000000000000000000B
:1065900000000000000000000000000000000000FB
:0865A0000000000000000000F3
:04000005000140C1F5
:00000001FF
