:020000040000FA
:10000000D0100020A5010000A9010000AB010000F4
:1000100000000000000000000000000000000000E0
:10002000000000000000000000000000AD01000022
:100030000000000000000000AF010000B10100005E
:10004000B3010000B3010000E1040000B3010000AF
:10005000B301000000000000B3010000B301000084
:10006000B3010000B3010000B3010000B3010000C0
:10007000B3010000B3010000B3010000B3010000B0
:10008000B3010000B3010000B3010000B3010000A0
:10009000B3010000B3010000B3010000B301000090
:1000A000B3010000B30100000000000000000000E8
:1000B0000000000000000000000000000000000040
:1000C00000F002F800F03EF80CA030C80838241800
:1000D0002D18A246671EAB4654465D46AC4201D180
:1000E00000F030F87E460F3E0FCCB6460126334274
:1000F00000D0FB1AA246AB46334318470C09000058
:100100002C090000103A02D378C878C1FAD85207F7
:1001100001D330C830C101D504680C6070470000BD
:100120000023002400250026103A01D378C1FBD813
:10013000520700D330C100D50B6070471FB51FBDFB
:1001400010B510BD00F02EFC1146FFF7F7FF00F0D0
:10015000F1F900F046FC03B4FFF7F2FF03BC00F036
:100160004BFC0000401E00BF00BF00BF00BF00BF2F
:1001700000BF00BF00BF00BF00BF00BF00BFF1D184
:1001800070470000401E00BF00BF00BF00BF00BF9F
:1001900000BF00BF00BF00BF00BF00BF00BFF1D164
:1001A0007047000006480047FEE7FEE7FEE7FEE76F
:1001B000FEE7FEE703480449044A054B7047000088
:1001C000C1000000D0000020D0100020D008002086
:1001D000D008002001B509E00099491E009100E017
:1001E000401C7D21C9008842FADB002000990029CB
:1001F000F2D108BD10B5012000F022F81E2000F059
:100200001FF810BD10B5012000F028F810BD10B582
:10021000012000F01EF810BD10B5012000F023F8F9
:1002200010BD10B51E2000F019F810BD10B51E202D
:1002300000F00FF810BD10B51E2000F014F810BD2E
:1002400001210522120707231B02D2188300D15077
:10025000704701218140084A916070470121814027
:10026000054AD160704704494968012282405140E3
:10027000014A5160704700000005005010B501248C
:100280000120D84908600020D749086008E0012013
:10029000FFF7A0FF2046611CCCB2002800D003E08D
:1002A000D14800680028F2D000BFD0498968C8B2A0
:1002B000142100F0D1FAC8B2CD4908700878C10FF6
:1002C000091849104900411A012904D1C848007889
:1002D000401CC74908700020C2490860C448007823
:1002E00010BDC448008CC0B201283AD1C148808CEE
:1002F0000007000F002834D1BE48806AF021084072
:1003000000280BD1BB48C06A0840002806D1BA4873
:10031000BA494860C813BA49886122E0B548806A82
:10032000F021084010280BD1B248C06A08400028CC
:1003300006D1B148B1494860C813B149886110E09D
:10034000AC48806AF021084030280AD1A948C06A28
:100350000840002805D1A848A8494860C813A84902
:1003600088610020A749086001208107086000BF5C
:10037000A44800680028FBD0704710B50024FFF7A0
:1003800046FF0020A04908600120A049086000BF86
:1003900005E09F48005D9F490855601CC4B2202CB1
:1003A000F7DB00BF984800680028FBD00020964982
:1003B000C86001209549886000BF9348C068002844
:1003C000FBD000209049086101209049086100BFDE
:1003D0008D4800690028FBD0012010BDF8B500262B
:1003E00000240027002088490860012087494860D0
:1003F00000BF854800680028FBD000208249C86003
:1004000001208249886008E0761C0120FFF7E2FEA7
:100410007D20C000864200D903E07B48C0680028E8
:10042000F2D000BF002408E07A48005D7A49085500
:10043000002078490855601CC4B2202CF4DB7748B2
:10044000006801281BD174480078AA2817D1724887
:100450004078AF2813D1002505E06F49485D00F0D2
:1004600082F9681CC5B2202DF7DBFFF7CBFEFFF742
:10047000DDFE01270A206A4908706A4908700020D9
:100480006149086101206149086100BF5E48006957
:100490000028FBD0002F01D00020F8BD6148007873
:1004A000002804D05F480078401E5E490870012093
:1004B000F3E708B500201C230A221D210090082024
:1004C00000F06CF90420584948600321022000F034
:1004D00051F8022001218140544A116000BF08BD3B
:1004E00010B500F015F94A49514A1278885450481D
:1004F0000078401C4E4908700A204E49087010BD13
:1005000010B54B480078002813D002E06420FFF7B4
:1005100029FE484801780078401E464A107000299C
:10052000F4D1FFF72AFF0A20424908700020404911
:10053000087010BD182400BFFFF7D3FEFFF75AFE66
:10054000FFF7B7FF00F0A3F800BF32483A49486010
:10055000084684600DE000BFFFF759FEFFF761FE1B
:1005600006E0FFF73BFF2F480078002800D1F3E7B3
:10057000F7E7F0E710B5002819DA304A03071B0F38
:10058000083B9B089B00D2588307DC0EFF23A34047
:100590009A438B071B0E8407E40EA3401A43274B94
:1005A0000407240F083CA408A4001A5118E01F4AAD
:1005B00003231B02D21883089B00D2588307DC0E4A
:1005C000FF23A3409A438B071B0E8407E40EA3402E
:1005D0001A43164B032424021B198408A4001A5141
:1005E00010BD000000D0004000D1004000D5004008
:1005F00004000020C00F00F0DFFF07C0000500402E
:10060000006C00400001004000110040001000405C
:100610000C0000204C0000202C00002000140040A2
:1006200000000020010000200023004000E100E065
:100630000200002003000020001500401CED00E037
:1006400010B502460020D2B2002108E01346CB408C
:10065000DB07DB0F0724641AA3401843491C082951
:10066000F4D310BD70B50446200EFFF7E9FF050670
:10067000200CFFF7E5FF00040543200AFFF7E0FF29
:10068000000205432046FFF7DBFF284370BD04202E
:100690001749C86000208860012008611548486239
:1006A000154888621548C861154808620120C8626B
:1006B00002200863002048611248886102204863D4
:1006C0000846406B8007800F022804D10E48C8639B
:1006D0000E4888630BE00648406B8007800F0128B6
:1006E00005D1FF200249C863FF20083088637047A6
:1006F00000150040E743C323A363E313E7E7E7E7FD
:100700004343434320200401FFFF00002110010068
:1007100000BF484880680128FBD100204549886017
:1007200045488069C0B2704770B504460D46012641
:100730000AE02046641E002804DB7D20C000FFF78D
:1007400021FD01E0002603E03A4880680128F0D14D
:1007500000BF002C05DB00203649886036488069E0
:100760002870304670BD3449C86100BF3149C9693D
:100770000129FBD100212F4AD161704730B50346D2
:10078000002528466D1C1C5C05E02046FFF7EBFFAA
:1007900028466D1C1C5C002CF7D130BDF8B507460F
:1007A0000C4615461E46204600F031F80021304622
:1007B00000F036F82048C4604661069800280DD045
:1007C000384600F024F80021284600F029F81A489D
:1007D00005618760012018494031C86217481649F1
:1007E00048620420086001201549886008600020E4
:1007F00010498860F8BDC1B20F4AD16100BF0D49F0
:10080000C9690129FBD100210A4AD1617047012140
:100810000522120707231B02D2188300D15070470C
:1008200010B58A0005231B07072424021B19840026
:100830001A5110BD002100400025004000E0D70102
:1008400000200040002203098B422CD3030A8B4274
:1008500011D300239C464EE003460B433CD40022B8
:1008600043088B4231D303098B421CD3030A8B42CA
:1008700001D394463FE0C3098B4201D3CB01C01A98
:10088000524183098B4201D38B01C01A5241430963
:100890008B4201D34B01C01A524103098B4201D351
:1008A0000B01C01A5241C3088B4201D3CB00C01ABE
:1008B000524183088B4201D38B00C01A5241430836
:1008C0008B4201D34B00C01A5241411A00D201465B
:1008D0005241104670475DE0CA0F00D049420310F4
:1008E00000D34042534000229C4603098B422DD343
:1008F000030A8B4212D3FC22890112BA030A8B42EB
:100900000CD3890192118B4208D3890192118B4239
:1009100004D389013AD0921100E08909C3098B42BE
:1009200001D3CB01C01A524183098B4201D38B0101
:10093000C01A524143098B4201D34B01C01A5241A4
:1009400003098B4201D30B01C01A5241C3088B42E9
:1009500001D3CB00C01A524183088B4201D38B00D4
:10096000C01A5241D9D243088B4201D34B00C01A5E
:100970005241411A00D20146634652415B10104673
:1009800001D34042002B00D54942704763465B10BB
:1009900000D3404201B50020C046C04602BD7047AA
:1009A00070477047754600F023F8AE46050069466B
:1009B0005346C008C000854618B020B5FFF7FAFBC3
:1009C00060BC00274908B6460026C0C5C0C5C0C5E2
:1009D000C0C5C0C5C0C5C0C5C0C5403D49008D46E5
:1009E00070470446C046C0462046FFF7B4FB0000EF
:1009F000004870476C00002001491820ABBEFEE79C
:100A00002600020070470000280A000000000020B5
:100A10000C00000004010000340A00000C0000205B
:100A2000C4100000200100000000000A00000000C7
:040A300000000000C2
:04000005000000C136
:00000001FF
