:020000040800F2
:10000000002800209D010008610400085904000830
:100010005D04000863030008110B000800000000E5
:10002000000000000000000000000000710900084E
:10003000670300080000000079070008610A000853
:10004000B7010008B7010008B7010008B7010008B0
:10005000B7010008B7010008B7010008B7010008A0
:10006000B7010008B7010008B7010008B701000890
:10007000B7010008B7010008B7010008B701000880
:10008000B7010008B7010008B7010008B701000870
:10009000B7010008B7010008B7010008B701000860
:1000A000B7010008B7010008B7010008B701000850
:1000B000B7010008C10A0008B7010008B70100082D
:1000C000B7010008B7010008B7010008B701000830
:1000D000B7010008B7010008B7010008B701000820
:1000E000B7010008B7010008B7010008B701000810
:1000F000B7010008B7010008B7010008B701000800
:10010000B7010008B7010008B7010008B7010008EF
:10011000B7010008B7010008B7010008B7010008DF
:10012000B7010008B7010008B7010008B7010008CF
:10013000B7010008B7010008B7010008B7010008BF
:10014000B7010008B7010008B7010008B7010008AF
:10015000B7010008B7010008B7010008B70100089F
:10016000B7010008B7010008B7010008B70100088F
:10017000B7010008B7010008B7010008B70100087F
:10018000B7010008B7010008DFF80CD000F018F83C
:10019000004800471D0D0008002800200648804741
:1001A00006480047FEE7FEE7FEE7FEE7FEE7FEE75C
:1001B000FEE7FEE7FEE7FEE7650A000889010008A2
:1001C000064C074D06E0E06840F0010394E80700A4
:1001D00098471034AC42F6D3FFF7DAFF6C0E0008F4
:1001E0008C0E0008CA430260704721B1826842F059
:1001F0000102826003E0826822F00102826070479F
:100200000021084A1168084A1140D0E900231A4326
:1002100083681A43C3681A431143044AC2F804139B
:100220007047000004230140E030FCFF0020014043
:100230000146C86C80B270470246002013680B402C
:100240000BB1012000E000207047000030B50246ED
:10025000002000235068104C20400D790C6844EABF
:1002600005242043506090680C4C2040D1E9035491
:100270002C438D682C434D7944EA4504204390601B
:10028000D06A20F470000C7D641EE4B2234340EA7F
:100290000350D06230BD0000FFFEFFFCFDF7FFC041
:1002A000F0B504460D4600200021092D11DDE0685F
:1002B000A5F10A0606EB4607072606FA07F188436A
:1002C000A5F10A0606EB460603FA06F10843E060CC
:1002D0000CE0206905EB4507072606FA07F188437D
:1002E00005EB450603FA06F108432061072A0FDAF9
:1002F000606B561E06EB86071F2606FA07F1884339
:10030000561E06EB860605FA06F10843606322E0F6
:100310000D2A0FDA206BD61F06EB86071F2606FA7A
:1003200007F18843D61F06EB860605FA06F1084357
:10033000206310E0E06AA2F10D0606EB86071F2697
:1003400006FA07F18843A2F10D0606EB860605FAC8
:1003500006F10843E062F0BD816841F080418160B0
:10036000704700BFFEE77047F0B50A460021002342
:10037000002400BF3DE0012505FA01F3156805EAF8
:1003800003049C4234D105684F000326BE40B543A8
:10039000056015794E00B54006683543056015794E
:1003A000012D02D01579022D16D185684F00032644
:1003B000BE40B543856055794E00B54086683543EB
:1003C0008560456801268E40B5434560456896794D
:1003D0008E40B6B235434560C5684F000326BE4027
:1003E000B543C560D5794E00B540C6683543C56094
:1003F000491C1029BFD3F0BDF0B5002300244D07E0
:10040000ED0E02FA05F3CE1000F1200555F8265046
:100410004E07F70E0F26BE40B543CF1000F1200661
:1004200046F82750CE1000F1200555F8265045EA31
:100430000304CE1000F1200545F82640F0BD024629
:10044000002013690B400BB1012000E00020704731
:10045000418370470183704700BFFEE700BFFEE79E
:10046000704700001CB511A103C9CDE9000110209F
:1004700000F032FA05226946302000F03DF90522ED
:100480006946102000F082F8002406E01DF8040000
:10049000A52800D003E0601CC4B2052CF6DB00BF29
:1004A000052C01D001201CBD0020FCE7A5A5A5A5B9
:1004B000A50000001CB50121052000F05FF90C200B
:1004C000009001208DF8040000208DF80600032024
:1004D0008DF8050001208DF8070069460E48FFF7EA
:1004E00043FF4FF40040009000208DF804000120ED
:1004F0008DF8070069460948FFF736FF00F06EF9EE
:1005000000F07AF804210448FFF7A2FF082102480E
:10051000FFF7A0FF1CBD00000008024000000240E1
:1005200010B504211648FFF793FF0F21202000F09B
:1005300003F90021212000F0FFF80321222000F020
:10054000FBF80F21262000F0F7F805220D49302096
:1005500000F0D2F805220C492A2000F0CDF8202125
:10056000312000F0E9F82021322000F0E5F81821D0
:10057000252000F0E1F804210148FFF76BFF10BDD2
:1005800000080240590E0008540E00082DE9F04101
:1005900007460D46164608210B48FFF759FF384617
:1005A00000F07EF98046002405E0FF2000F078F995
:1005B0002855601CC4B2B442F7DB08210248FFF79B
:1005C00049FF4046BDE8F0810008024070B504468E
:1005D00008210848FFF73CFF204600F061F9FF20A2
:1005E00000F05EF9054608210248FFF733FF284670
:1005F00070BD00000008024000B585B0002114481D
:1006000000F07EF90020ADF800004FF48270ADF8E4
:1006100002000020ADF80400ADF80600ADF80800B7
:100620004FF40070ADF80A003820ADF80C0000203F
:10063000ADF80E000720ADF810006946044800F040
:1006400079F90121024800F05BF905B000BD000016
:100650000030014010B504210E48FFF7F9FE0522D5
:100660000D49302000F048F805220C492A2000F0FE
:1006700043F8FF21242000F05FF81821252000F026
:100680005BF80E21202000F057F804210148FFF705
:10069000E1FE10BD00080240590E0008540E00088B
:1006A00070B50546102000F017F904211148FFF736
:1006B000CFFE20222946A02000F01EF804210D487C
:1006C000FFF7C8FE0720FFF781FF044621462720D9
:1006D00000F032F804F0100028B1FF21E12000F012
:1006E0002BF8102070BD04F0200008B12020F9E79D
:1006F000FF20F7E7000802402DE9F04107460C46CD
:10070000154608210B48FFF7A3FE384600F0C8F84D
:100710008046002605E014F8010B00F0C1F8701CBB
:10072000C6B2AE42F7DB08210248FFF793FE40460F
:10073000BDE8F0810008024070B505460C4608216E
:100740000748FFF785FE284600F0AAF8064620462F
:1007500000F0A6F808210248FFF77CFE304670BD85
:100760000008024002490143024A1160704700003C
:100770000000FA050CED00E07047000029B1064AC0
:1007800012680243044B1A6004E0034A1268824371
:10079000014B1A60704700003038024029B1064A08
:1007A00012680243044B1A6004E0034A1268824351
:1007B000014B1A60704700004438024029B1064AD4
:1007C00012680243044B1A6004E0034A1268824331
:1007D000014B1A60704700002438024000B587B012
:1007E00001210846FFF7CAFF01210803FFF7D6FFE2
:1007F000E020059002208DF8180000208DF81A00E6
:1008000003208DF8190001208DF81B0005A922484E
:10081000FFF7AAFD052211461F48FFF7EDFD05224F
:1008200006211D48FFF7E8FD052207211A48FFF7BA
:10083000E3FD01210803FFF7C1FF00214FF48050C1
:10084000FFF7BCFF0020ADF800004FF48270ADF858
:1008500002000020ADF804000220ADF806000120DF
:10086000ADF808004002ADF80A003820ADF80C00E1
:100870000020ADF80E000720ADF8100069460748CB
:1008800000F058F80121054800F03AF8FF2000F088
:1008900007F807B000BD0000000002400030014032
:1008A00010B5044600BF02210A4800F035F80028C0
:1008B000F9D02146074800F03BF800BF0121054868
:1008C00000F02AF80028F9D0024800F02EF8C0B253
:1008D00010BD00000030014010B5044607480088F4
:1008E0004FF6C77108400549088008460088204334
:1008F00008800121014800F003F810BD00300140DC
:1009000021B1028842F04002028004E002884FF6E2
:10091000BF731A40028070470246002013890B40C3
:100920000BB1012000E00020704701468889704724
:100930008181704710B50022028802F441520B8871
:100940004C8823438C882343CC8823430C8923433E
:100950004C8923438C892343CC8923431A43028047
:10096000838B4FF2FF74234083830B8A038210BD75
:10097000704700000CB500200190009034480068DA
:1009800040F480303249086000BF3148006800F40C
:10099000003000900198401C0190009818B901980F
:1009A000B0F5A06FF1D12A48006800F4003010B112
:1009B0000120009001E0002000900098012846D11D
:1009C00023484030006840F08050214940310860A1
:1009D0002048006840F480401E4908601C480830E8
:1009E00000681B49083108600846006840F4004070
:1009F00008600846006840F4A05008601648091FC7
:100A00000860081F006840F08070091F086000BF80
:100A10000F48006800F000700028F9D040F205602F
:100A20000E4908600A480830006820F003000849B1
:100A3000083108600846006840F00200086000BF06
:100A400003480830006800F00C000828F8D10CBDFD
:100A5000003802400070004008544006003C02404C
:100A60007047000010B51248006840F001001049BE
:100A7000086000200E49083108600D4800680D49E3
:100A800008400B4908600C48091D0860081F0068F1
:100A900020F48020091F0860002005490C310860FF
:100AA000FFF768FF4FF000600449086010BD0000C8
:100AB00000380240FFFFF6FE1030002408ED00E091
:100AC00010B50121064800F012F8012803D10121D8
:100AD000044800F072F80121014800F005F810BD4B
:100AE000000400404C040020CA430282704730B525
:100AF0000246002000230024158A05EA0103958997
:100B000005EA010413B10CB1012000E0002030BD62
:100B100000BFFEE71CB501210220FFF72FFE1020C9
:100B2000009000208DF8040001208DF80700694630
:100B30000848FFF719FC4FF40040009000208DF8A2
:100B4000040001208DF8070069460248FFF70CFCFD
:100B50001CBD0000000402401CB501210420FFF769
:100B60000DFE4FF4A060FFF7FDFD30200090012046
:100B70008DF8040000208DF8060002208DF8050095
:100B800001208DF8070069460548FFF7EDFB1021AD
:100B90000348FFF75FFC20210148FFF75BFC1CBD09
:100BA00000080240002105E0002200E0521C0E2A4D
:100BB000FCDB491C8142F7DB704701617047000094
:100BC0001CB50446207A0A280CD10120009003208D
:100BD0008DF8040002208DF8050069461A48FFF7D9
:100BE000C3FB29E0207A0B280CD1022000900320BF
:100BF0008DF8040002208DF8050069461248FFF7C1
:100C0000B3FB19E0207AC11700EB5171C910A0EBBA
:100C1000C10201219140009103208DF804000220BF
:100C20008DF80500217A082901DB084900E0084910
:100C300008466946FFF798FB217A0723012260687E
:100C4000FFF72EFB01201CBD0008024000040240FB
:100C50000000024010B504462046FFF7B1FF022114
:100C60006068FFF7BFFA6068FFF776FB00BF0221FC
:100C70006068FFF7E1FA0028F9D06068FFF7D8FA5A
:100C800010BD000070B58AB004460D4616461A48DD
:100C900020606560267201214FF4E060FFF77EFD61
:100CA00001210F20FFF76AFD0020009001900290C3
:100CB00003906846FFF7A4FA002004908DF8140012
:100CC00001208DF815000020069007900890012063
:100CD0008DF8240004A92846FFF7B8FA072301225B
:100CE00031462846FFF7DCFA01212846FFF77DFA56
:100CF00020460AB070BD0000680E000802E008C877
:100D0000121F08C1002AFAD170477047002001E085
:100D100001C1121F002AFBD1704700008CB0FFF701
:100D20001BFFFFF7F7FE4FF4A060FFF71BFDFFF777
:100D3000C1FB00BFFFF796FB0028FBD1FFF7F0FBDC
:100D400008223A4909A8FFF79DFF0922374906A85A
:100D5000FFF798FF0A22354903A8FFF793FF0B22FC
:100D600032496846FFF78EFFFFF774FC5CE009A884
:100D7000FFF770FF2E49086008460088000A2D49D9
:100D800008702B480078487006A8FFF763FF2A49CF
:100D9000086008460088000A2649887026480078BE
:100DA000C8706846FFF756FF244908600846008867
:100DB000000A2049087121480078487103A8FFF70C
:100DC00049FF1F49086008460088000A19498871D0
:100DD0001B480078C87110211A48FFF730FB1A49E8
:100DE000086008460078134908724FF4004115481E
:100DF000FFF725FB15490860084600780D49487241
:100E0000AA2013490870AF204870881C09490A6855
:100E100002604A68426009890181801EFFF740FC38
:100E20004FF4FA60FFF7BEFEA1E70000002001408A
:100E300010000020480000201400002018000020AE
:100E40001C0000200004024020000020240000209C
:100E500028000020E7E7E7E7E7C2C2C2C2C20000FD
:100E60000000000000000000550C00088C0E000877
:100E70000000002028000000FC0C0008B40E000850
:100E800028000020D82700000C0D000800000000FA
:100E90000000000000000000000000000000000052
:100EA0000000000000000000000000000000000042
:040EB000000000003E
:040000050800018965
:00000001FF
